:0300000002017B7F
:0C017B00787FE4F6D8FD75812002012594
:030187000201571B
:10012500120187E4F508F50920B5FDB202E509706D
:0C01350004E508640860EC12009580F1FD
:0F016C00EF44F055B0442052B0EF540F42B02290
:10015700750A11120141120003E4FF12016C43B248
:050167000F20B5FD2290
:10009500300339C203E50A30020C25E0FFE50A13F7
:1000A5001313541F800A33333354F8FFE50AC3137F
:1000B5004FF50AAF0A12016C7FC87E00120105E4F4
:0D00C500FF12016C0509E509700205082213
:0700030043B22043B12022AB
:10000E00C3E5129403E5119400407BE4F511F5125B
:10001E00A2B59200C2B5F50D750E01E50E150EAE28
:10002E000D7002150D4E70F3D2B5750D00750E02E2
:10003E00E50E150EAE0D7002150D4E70F3A2B592B3
:10004E0001051553150120011074172515F8200010
:10005E00047602800B7601800774172515F8E4F6F6
:10006E00E4F50DF50EAF0E74182FF8E6FE74172F8B
:10007E00F8E6B50611050EE50E7002050D64014594
:06008E000D70E28517165B
:010094002249
:03000B000200D21E
:1000D200C0E0C0D00512E512700205110514E51446
:1000E200700205130510E5107002050FD3743C95DC
:1000F20010E4950F5008D203750F00751000D0D090
:03010200D0E03218
:1001410043B110438E80758904758ACE758CFFD2B8
:060151008CD2A9D2AF22FE
:10010500EF1FAC0670011E4C6015750D00750E6471
:10011500E50E150EAC0D7002150D4C60E380F12255
:00000001FF
