:030000000201C733
:0C01C700787FE4F6D8FD7581200201D39A
:0301E70002019C76
:0B01D3001201E712016B12011680F808
:0301EA00B2B2228C
:0D01AD00EF33333354F8FEEFC3134EFF223F
:0D01BA00EF25E0FEEF131313541F4EFF223C
:0901DE0053B0F0EF540F42B022BF
:10019C00750A1112018712000343B20FE4FF02012A
:0101AC00DE74
:10016B00300418C204AF0A1201AD8F0A1201DE7FF0
:0C017B00647E0012014BE4FF1201DE2242
:1000A900BF020EA203E433240AF8E6FF1201AD8071
:1000B9000CA203E433240AF8E6FF1201BAA203E40E
:1000C90033240AF8A607B203E50A450BFF1201DE3D
:0700D900AF0C7E0002014B99
:10011600E51B603065096006851B097508FFAF0998
:100126001200A9C374C89514E49513500FE4F5138F
:10013600F51474FF8508F084F50C050812000E12FC
:0401460001EA80CC7E
:01014A002292
:0700030043B20143B10122E9
:10000E00C202C3E51294F4E511940150030200A854
:10001E00E4F511F512A2B09200C2B0F50D750E0501
:10002E00E50E150EAE0D7002150D4E70F3D2B075B5
:10003E000D00750E0AE50E150EAE0D7002150D4E65
:10004E0070F3A2B09201051AE51A70020519531A3F
:10005E00037519002001107415251AF82000047676
:10006E0002800B760180077415251AF8E4F6E4F584
:10007E000DF50EAF0E74162FF8E6FE74152FF8E67A
:10008E006E6002D202050EE50E7002050D64034588
:0A009E000D70E03002012285151BF1
:0100A8002235
:03000B000200E010
:1000E000C0E0C0D00512E512700205110514E51438
:1000F00070020513C374E895107403950F500AD26B
:1001000004750F0075100080080510E510700205D9
:060110000FD0D0D0E03258
:10018700438E805389F2758AC8758CD9C28DD28CFB
:05019700D2A9D2AF2245
:10014B00EF1FAC0670011E4C6015750D00750E0A85
:10015B00E50E150EAC0D7002150D4C60E380F1220F
:00000001FF
