:030000000201BA40
:0C01BA00787FE4F6D8FD7581200201C6B4
:0301DA0002017EA1
:0B01C6001201DA1201621200E080F862
:0D01A000EF33333354F8FEEFC3134EFF224C
:0D01AD00EF25E0FEEF131313541F4EFF2249
:0901D10053B0F0EF540F42B022CC
:10017E00750A1112018F12000343B20FE4FF020140
:01018E00D19F
:10016200300418C204AF0A1201A08F0A1201D17F13
:0C017200647E00120142E4FF1201D12261
:1000A900BF020EA203E433240AF8E6FF1201A0807E
:1000B9000CA203E433240AF8E6FF1201ADA203E41B
:1000C90033240AF8A607B203E50A450BFF1201D14A
:0700D900AF0C7E00020142A2
:1000E000E51B602D65096006851B097508FFAF09D2
:1000F0001200A9C374C89514E49513500FE4F513C6
:10010000F51474FF8508F084F50C050812000E80C4
:01011000CF1F
:0101110022CB
:0700030043B20143B10122E9
:10000E00C202C3E51294F4E511940150030200A854
:10001E00E4F511F512A2B09200C2B0F50D750E0501
:10002E00E50E150EAE0D7002150D4E70F3D2B075B5
:10003E000D00750E0AE50E150EAE0D7002150D4E65
:10004E0070F3A2B09201051AE51A70020519531A3F
:10005E00037519002001107415251AF82000047676
:10006E0002800B760180077415251AF8E4F6E4F584
:10007E000DF50EAF0E74162FF8E6FE74152FF8E67A
:10008E006E6002D202050EE50E7002050D64034588
:0A009E000D70E03002012285151BF1
:0100A8002235
:03000B00020112DD
:10011200C0E0C0D00512E512700205110514E51405
:1001220070020513C374E895107403950F5004D23E
:100132000480080510E5107002050FD0D0D0E0321F
:10018F00438E805389F2758A3C758CFDC28DD28C5B
:01019F00223D
:10014200EF1FAC0670011E4C6015750D00750E0A8E
:10015200E50E150EAC0D7002150D4C60E380F12218
:00000001FF
