:0300000002006695
:0C006600787FE4F6D8FD7581200200AD23
:030208000201A749
:0801F4001202081200F280FB68
:040203000208025893
:03020B00B2B2226A
:0D01DA00EF33333354F8FEEFC3134EFF2212
:0D01E700EF25E0FEEF131313541F4EFF220F
:1001BB00EFA2E392CCA2E292CDA2E192B31392B260
:0101CB002211
:1001A700750B1112004C1201FC43B20C43CA30E428
:0401B700FF0201BB87
:10017B00E4FDFCC3EF9DFBEE9CFAC3E49BE49A50B9
:10018B00167B0A7A00EB1B8A8370011A458370F584
:0B019B000DBD00010C80DCAE11AF12A6
:0101A6002236
:1000F200308D1D120003E50A6F600B850B0C75082D
:10010200277509108F0AE4F58AF58CC28D12020B4D
:10011200E50A603CB4020EA202E433240BF8E6FFC7
:100122001201DA800CA202E433240BF8E6FF12017A
:10013200E7A202E433240BF8A607B202E50B450C52
:10014200FF1201BBAF09AE0812017B8E088F092294
:10015200300325AF0B1201BBAF0B1201DA8F0BC2BA
:10016200037F0A7E0012017BE4FF1201BBE50B5400
:0801720010FFBF0103750B1122
:01017A002262
:0701FC0043B20243B10222ED
:10000300A2B19200C2B17F50AD071FED70FAD2B119
:100013007F14AD071FED70FAA2B1920120010B20EE
:1000230000047E0280067E018002E4FEE50F6E601E
:10003300078E0FE4F50E8002050E7404C3950E506F
:0800430005750E048E10AF10CC
:01004B002292
:0300630002020E88
:03020E00D20332E6
:0E01CC00538E7F5389F0438901C28DD28C225D
:10004C001201CCE4F5D775D61F438E18438E0443AA
:05005C00AF04D2AF2249
:100072000201F4E493A3F8E493A34003F68001F2AF
:1000820008DFF48029E493A3F85407240CC8C3338F
:10009200C4540F4420C8834004F456800146F6DF5E
:1000A200E4800B0102040810204080900203E47EE9
:1000B200019360BCA3FF543F30E509541FFEE49353
:1000C200A360010ECF54C025E060A840B8E493A31A
:1000D200FAE493A3F8E493A3C8C582C8CAC583CA45
:1000E200F0A3C8C582C8CAC583CADFE9DEE780BEFD
:0102070000F6
:00000001FF
