:030000000202A950
:0C02A900787FE4F6D8FD7581200202B5D4
:0300600002025C3D
:0802B50012006012013480FB0D
:0302C400B2B222B1
:0D028F00EF33333354F8FEEFC3134EFF225C
:0D029C00EF25E0FEEF131313541F4EFF2259
:10027000EFA2E392CCA2E292CDA2E192B31392B2AA
:01028000225B
:10025C00750D111202471202BD43B20C43CA30E4B1
:04026C00FF0202701B
:100003008E138F14AB07AA06E4F9F87FFF7EFFFD7A
:10001300FC120203E4FDFCC3ED9FEC9E503AC3E5E2
:100023000994E8E5089403500A0509E509702205D7
:1000330008801EE4F508F5090514E514700205139C
:10004300C374E8951474039513500675130375145C
:0C005300E80DBD00010C80BFAE13AF141F
:01005F00227E
:10013400308D1A1201BAE50C6F600B850D0E750A2D
:1001440000750B018F0CE4F58AF58CC28DE50C600B
:100154003CB4020EA202E433240DF8E6FF12028F2F
:10016400800CA202E433240DF8E6FF12029CA202E2
:10017400E433240DF8A607B202E50D450EFF120282
:1001840070AF0BAE0A1200038E0A8F0B22300325C8
:10019400AF0D120270AF0D12028F8F0DC2037F6478
:1001A4007E00120003E4FF120270E50D5410FFBF3D
:0501B4000103750D11AF
:0101B9002223
:0702BD0043B20143B101222D
:1001BA00A2B09200C2B07F05AD071FED70FAD2B0AF
:1001CA007F0AAD071FED70FAA2B0920120010B2041
:1001DA0000047E0280067E018002E4FEE5116E6064
:1001EA00078E11E4F510800205107403C3951050B0
:0801FA00057510038E12AF120F
:0102020022D9
:030063000202C7CF
:0302C700D203322D
:0E028100538E7F5389F0438901C28DD28C22A7
:10024700120281E4F5D775D61F438E18438E0443F7
:05025700AF04D2AF224C
:10020300C2D5E830E70FB2D5E4C39BFBE49AFAE426
:1002130099F9E498F8EC30E717B2D51202391200D5
:10022300A2E4C39BFBE49AFAE499F9E498F8800307
:100233001200A230D50DE4C39FFFE49EFEE49DFDB2
:04024300E49CFC2219
:1000660075F008758200EF2FFFEE33FECD33CDCC51
:1000760033CCC58233C5829BED9AEC99E5829840D4
:100086000CF582EE9BFEED9AFDEC99FC0FD5F0D6B1
:10009600E4CEFBE4CDFAE4CCF9A88222B800C1B9DB
:1000A6000059BA002DEC8BF084CFCECDFCE5F0CB19
:1000B600F97818EF2FFFEE33FEED33FDEC33FCEB52
:1000C60033FB10D703994004EB99FB0FD8E5E4F90D
:1000D600FA227818EF2FFFEE33FEED33FDEC33FCFA
:1000E600C933C910D7059BE99A4007EC9BFCE99AEE
:1000F600F90FD8E0E4C9FAE4CCFB2275F010EF2F33
:10010600FFEE33FEED33FDCC33CCC833C810D70732
:100116009BEC9AE899400AED9BFDEC9AFCE899F86D
:0E0126000FD5F0DAE4CDFBE4CCFAE4C8F92200
:00000001FF
