:030000000201DC1E
:0C01DC00787FE4F6D8FD7581200201E870
:0301F3000201BC4A
:0B01E8001201F31201621200ED80F81A
:0301F600B2B02282
:0F01CD00EF44F055B0442052B0EF540F42B0222F
:1001BC00750A111201A712000343B20FE4FF0201EA
:0101CC00CD65
:10016200300421C204E50A33333354F8FFE50AC3ED
:10017200134FF50AFF1201CD7F647E00120187E45E
:05018200FF1201CD2277
:1000A900BF0215A203E433FF240AF8E6FE33333313
:1000B90054F8FDEEC3138013A203E433FF240AF8B6
:1000C900E6FE25E0FDEE131313541F4DFE740A2FAF
:1000D900F8A606B203E50A450BFF1201CDAF0C7E67
:0400E9000002018789
:1000ED008037E51B603865096003750801851B09BC
:1000FD00AF091200A9C374C89514E49513501AE4FE
:10010D00F513F51474FF8508F084F50CAF08050898
:0E011D0074FAC39F50037508FA12000E80C4D6
:01012B0022B1
:0700030043B22043B12022AB
:10000E00C202C3E5129432E511940050030200A817
:10001E00E4F511F512A2B59200C2B5F50D750E05F7
:10002E00E50E150EAE0D7002150D4E70F3D2B575B0
:10003E000D00750E0AE50E150EAE0D7002150D4E65
:10004E0070F3A2B59201051AE51A70020519531A3A
:10005E00037519002001107415251AF82000047676
:10006E0002800B760180077415251AF8E4F6E4F584
:10007E000DF50EAF0E74162FF8E6FE74152FF8E67A
:10008E006E6002D202050EE50E7002050D64034588
:0A009E000D70E03002012285151BF1
:0100A8002235
:03000B0002012CC3
:10012C00C0E0C0D00512E512700205110514E514EB
:10013C0070020513C374E895107403950F500AD21E
:10014C0004750F0075100080080510E5107002058D
:06015C000FD0D0D0E0320C
:1001A700438E805389F2758AC8758CD9C28DD28CDB
:0501B700D2A9D2AF2225
:10018700EF1FAC0670011E4C6015750D00750E0A49
:10019700E50E150EAC0D7002150D4C60E380F122D3
:00000001FF
