:030000000201CD2D
:0C01CD00787FE4F6D8FD7581200201D98E
:0301E4000201AC69
:0B01D9001201E412015112009580F8A1
:0301E700B2B02291
:0F01BE00EF44F055B0442052B0EF540F42B0223E
:1001AC00750A11120196120003E4FF1201BE43B24C
:0201BC000F2210
:10015100300321C203E50A33333354F8FFE50AC300
:10016100134FF50AFF1201BE7FC87E00120176E42B
:05017100FF1201BE2297
:1000DA00BF0215A202E433FF240AF8E6FE333333E3
:1000EA0054F8FDEEC3138013A202E433FF240AF886
:1000FA00E6FE25E0FDEE131313541F4DFE740A2F7E
:10010A00F8A606B202E50A450BFF1201BEAF0C7E45
:04011A000002017668
:1000950012000EE516603D12000EE50965166009B1
:1000A500850A0B750801851609AF161200DAC374A7
:1000B500039514E4951350DBE4F513F51474FF85EB
:1000C50008F084F50CAF0805087432C39F50C47559
:0400D500083280BFAE
:0100D9002204
:0700030043B22043B12022AB
:10000E00C3E5129402E5119400407BE4F511F5125C
:10001E00A2B59200C2B5F50D750E05E50E150EAE24
:10002E000D7002150D4E70F3D2B5750D00750E0ADA
:10003E00E50E150EAE0D7002150D4E70F3A2B592B3
:10004E0001051553150120011074172515F8200010
:10005E00047602800B7601800774172515F8E4F6F6
:10006E00E4F50DF50EAF0E74182FF8E6FE74172F8B
:10007E00F8E6B50611050EE50E7002050D64014594
:06008E000D70E28517165B
:010094002249
:03000B0002011ED1
:10011E00C0E0C0D00512E512700205110514E514F9
:10012E00700205130510E5107002050FD374649567
:10013E0010E4950F5008D203750F00751000D0D043
:03014E00D0E032CC
:1001960043B110438E80758904758AC0758CFDD273
:0601A6008CD2A9D2AF22A9
:10017600EF1FAC0670011E4C6015750D00750E6400
:10018600E50E150EAC0D7002150D4C60E380F122E4
:00000001FF
